{"abi":[{"type":"constructor","inputs":[{"name":"_token","type":"address","internalType":"contract IERC20"},{"name":"_tokenowner","type":"address","internalType":"address"}],"stateMutability":"nonpayable"},{"type":"function","name":"burnTokens","inputs":[{"name":"_user","type":"address","internalType":"address"},{"name":"_amount","type":"uint256","internalType":"uint256"},{"name":"stakeIndex","type":"uint256","internalType":"uint256"}],"outputs":[],"stateMutability":"nonpayable"},{"type":"function","name":"claimRewards","inputs":[{"name":"stakeIndex","type":"uint256","internalType":"uint256"}],"outputs":[],"stateMutability":"nonpayable"},{"type":"function","name":"earlyWithdrawalPenalties","inputs":[{"name":"","type":"uint256","internalType":"uint256"}],"outputs":[{"name":"","type":"uint256","internalType":"uint256"}],"stateMutability":"view"},{"type":"function","name":"getRecentStakeIndex","inputs":[],"outputs":[{"name":"","type":"uint256","internalType":"uint256"}],"stateMutability":"view"},{"type":"function","name":"getStake","inputs":[{"name":"_index","type":"uint256","internalType":"uint256"}],"outputs":[{"name":"","type":"tuple","internalType":"struct Staking.Stake","components":[{"name":"amount","type":"uint256","internalType":"uint256"},{"name":"startTimestamp","type":"uint32","internalType":"uint32"},{"name":"period","type":"uint256","internalType":"uint256"},{"name":"annualYieldRate","type":"uint256","internalType":"uint256"},{"name":"withdrawn","type":"bool","internalType":"bool"},{"name":"lastClaimTimestamp","type":"uint256","internalType":"uint256"},{"name":"expectedRewardTimestamp","type":"uint256","internalType":"uint256"},{"name":"expectedRewards","type":"uint256","internalType":"uint256"},{"name":"accumulatedRewards","type":"uint256","internalType":"uint256"}]}],"stateMutability":"view"},{"type":"function","name":"getStakeCount","inputs":[],"outputs":[{"name":"","type":"uint256","internalType":"uint256"}],"stateMutability":"view"},{"type":"function","name":"hasActiveStake","inputs":[{"name":"","type":"address","internalType":"address"}],"outputs":[{"name":"","type":"bool","internalType":"bool"}],"stateMutability":"view"},{"type":"function","name":"owner","inputs":[],"outputs":[{"name":"","type":"address","internalType":"address"}],"stateMutability":"view"},{"type":"function","name":"renounceOwnership","inputs":[],"outputs":[],"stateMutability":"nonpayable"},{"type":"function","name":"stakeTokens","inputs":[{"name":"_amount","type":"uint256","internalType":"uint256"},{"name":"_period","type":"uint256","internalType":"uint256"}],"outputs":[],"stateMutability":"nonpayable"},{"type":"function","name":"stakes","inputs":[{"name":"","type":"address","internalType":"address"},{"name":"","type":"uint256","internalType":"uint256"}],"outputs":[{"name":"amount","type":"uint256","internalType":"uint256"},{"name":"startTimestamp","type":"uint32","internalType":"uint32"},{"name":"period","type":"uint256","internalType":"uint256"},{"name":"annualYieldRate","type":"uint256","internalType":"uint256"},{"name":"withdrawn","type":"bool","internalType":"bool"},{"name":"lastClaimTimestamp","type":"uint256","internalType":"uint256"},{"name":"expectedRewardTimestamp","type":"uint256","internalType":"uint256"},{"name":"expectedRewards","type":"uint256","internalType":"uint256"},{"name":"accumulatedRewards","type":"uint256","internalType":"uint256"}],"stateMutability":"view"},{"type":"function","name":"stakingLimits","inputs":[{"name":"","type":"uint256","internalType":"uint256"}],"outputs":[{"name":"","type":"uint256","internalType":"uint256"}],"stateMutability":"view"},{"type":"function","name":"stakingaprs","inputs":[{"name":"","type":"uint256","internalType":"uint256"}],"outputs":[{"name":"","type":"uint256","internalType":"uint256"}],"stateMutability":"view"},{"type":"function","name":"token","inputs":[],"outputs":[{"name":"","type":"address","internalType":"contract IERC20"}],"stateMutability":"view"},{"type":"function","name":"totalRewardDistributed","inputs":[],"outputs":[{"name":"","type":"uint256","internalType":"uint256"}],"stateMutability":"view"},{"type":"function","name":"totalStakedToken","inputs":[],"outputs":[{"name":"","type":"uint256","internalType":"uint256"}],"stateMutability":"view"},{"type":"function","name":"transferOwnership","inputs":[{"name":"newOwner","type":"address","internalType":"address"}],"outputs":[],"stateMutability":"nonpayable"},{"type":"event","name":"EarlyWithdrawal","inputs":[{"name":"user","type":"address","indexed":true,"internalType":"address"},{"name":"amount","type":"uint256","indexed":false,"internalType":"uint256"},{"name":"penalty","type":"uint256","indexed":false,"internalType":"uint256"}],"anonymous":false},{"type":"event","name":"OwnershipTransferred","inputs":[{"name":"previousOwner","type":"address","indexed":true,"internalType":"address"},{"name":"newOwner","type":"address","indexed":true,"internalType":"address"}],"anonymous":false},{"type":"event","name":"RewardsClaimed","inputs":[{"name":"user","type":"address","indexed":true,"internalType":"address"},{"name":"amount","type":"uint256","indexed":false,"internalType":"uint256"}],"anonymous":false},{"type":"event","name":"StakeWithdrawn","inputs":[{"name":"user","type":"address","indexed":true,"internalType":"address"},{"name":"amount","type":"uint256","indexed":false,"internalType":"uint256"}],"anonymous":false},{"type":"event","name":"TokensBurned","inputs":[{"name":"user","type":"address","indexed":true,"internalType":"address"},{"name":"amount","type":"uint256","indexed":false,"internalType":"uint256"}],"anonymous":false},{"type":"event","name":"TokensStaked","inputs":[{"name":"user","type":"address","indexed":true,"internalType":"address"},{"name":"amount","type":"uint256","indexed":false,"internalType":"uint256"},{"name":"period","type":"uint256","indexed":false,"internalType":"uint256"},{"name":"annualYieldRate","type":"uint256","indexed":false,"internalType":"uint256"}],"anonymous":false},{"type":"error","name":"OwnableInvalidOwner","inputs":[{"name":"owner","type":"address","internalType":"address"}]},{"type":"error","name":"OwnableUnauthorizedAccount","inputs":[{"name":"account","type":"address","internalType":"address"}]},{"type":"error","name":"Staking_AmountCannotBeZero","inputs":[]},{"type":"error","name":"Staking_FailedTransaction","inputs":[]},{"type":"error","name":"Staking_InvalidStakeIndex","inputs":[]},{"type":"error","name":"Staking_RewardsCompleted","inputs":[]},{"type":"error","name":"Staking_StakingNotOver","inputs":[]},{"type":"error","name":"Staking_StakingNotWithdrawable","inputs":[]}],"bytecode":{"object":"0x60806040523480156200001157600080fd5b5060405162001691380380620016918339810160408190526200003491620003cb565b33806200005b57604051631e4fbdf760e01b81526000600482015260240160405180910390fd5b620000668162000362565b50600180546001600160a01b038085166001600160a01b0319928316179092556004805492841692909116919091179055620000ad670de0b6b3a76400006000196200040a565b620000c190670de0b6b3a76400006200042d565b601e60005260066020527fb6ba906ff52451a7a924e2eaeb8aea3ebee7350a8703e5e417edb25358c7dcc15562000103670de0b6b3a76400006000196200040a565b6200011790670de0b6b3a76400006200042d565b7f6ca6dcafc04b6e03616746c3528366f990e332021e35d59275be746d65cae0a755505069021e19e0c9bab24000007f1727c0104c2870c3003671480695f7dab262614528b49265008e76fd3d48c5fe5569010f0cf064dd592000007ffb78eb295a86b096b5f095822bd250a277112be4103ea4a7608d96eca726b2c18190557ff00a5d7dc5764c56ccd4375c9467b4afc0f9d6b53d77dfb27894bf31e07d5d8c55686c6b935b8bbd4000007fd14912d8608d936f2919500df1975ac4b4185902611dae9908c3e5ed8b9f346d55600a7fa3046de8475047f40cb93bcd5ee006bbc09114e5f6860de753f6f8734428030581905560147f9eeae9ed695d87e82bfdfb7eb47aa6910307944ca506da5144475f3c07dabd12819055601e7f3cbbe24deeba40230b1c6fba48ad5512a12b43cfa5d1413333aae82c39a297705560327ff5d3c2d7fa82ae7654ab16c92c9fd9245fcdd52a13a5f07a8c2602de6b0a826d81905560076020527f5efb79fbc11da2125514bcdef1696210bd26aebc3ba57e1be8a36c2cafb4d47892909255600f7f52dfb2b16922ce24e27842ab7dee9de9bc28a4cc01235d2b030f6221e220c9f7557f339e4f49bde7cdbb55819ec6ed6e226bcd711f8941c3e1145454c499528c9909557ff43bff534a6553f67e1986bf6340af95da5fd040cea3b163ecda62056a53f3025560647f7c7042c05ffd8926d14e6f0de119749d437392e403b90a186358e40bace82d05556102d060005261012c7f6b5145ad54be6f72ff8caf896125b904441fb3a05372eb84d9a45ed033bcf7b25562000459565b600080546001600160a01b038381166001600160a01b0319831681178455604051919092169283917f8be0079c531659141344cd1fd0a4f28419497f9722a3daafe3b4186f6b6457e09190a35050565b6001600160a01b0381168114620003c857600080fd5b50565b60008060408385031215620003df57600080fd5b8251620003ec81620003b2565b6020840151909250620003ff81620003b2565b809150509250929050565b6000826200042857634e487b7160e01b600052601260045260246000fd5b500490565b80820281158282048414176200045357634e487b7160e01b600052601160045260246000fd5b92915050565b61122880620004696000396000f3fe608060405234801561001057600080fd5b506004361061010b5760003560e01c8063715018a6116100a2578063ce325bf811610071578063ce325bf814610276578063e0aeb7c1146102fe578063e4188bb014610311578063f2fde38b14610331578063fc0c546a1461034457600080fd5b8063715018a6146102385780638da5cb5b14610240578063bbfd4e0c14610265578063cb6d8ee61461026d57600080fd5b8063370fc939116100de578063370fc939146101765780633b7b618814610196578063584b62a1146101a957806369486d291461020557600080fd5b8063054d8310146101105780630962ef79146101435780632e4ab48a1461015857806330188ee81461016d575b600080fd5b61013061011e366004611043565b60066020526000908152604090205481565b6040519081526020015b60405180910390f35b610156610151366004611043565b610357565b005b33600090815260056020526040902054610130565b61013060035481565b610130610184366004611043565b60076020526000908152604090205481565b6101566101a436600461105c565b610407565b6101bc6101b736600461109a565b61082a565b60408051998a5263ffffffff90981660208a0152968801959095526060870193909352901515608086015260a085015260c084015260e08301526101008201526101200161013a565b6102286102133660046110c4565b60096020526000908152604090205460ff1681565b604051901515815260200161013a565b61015661089d565b6000546001600160a01b03165b6040516001600160a01b03909116815260200161013a565b6101306108b1565b61013060025481565b610289610284366004611043565b61092e565b60405161013a91906000610120820190508251825263ffffffff6020840151166020830152604083015160408301526060830151606083015260808301511515608083015260a083015160a083015260c083015160c083015260e083015160e083015261010080840151818401525092915050565b61015661030c3660046110e6565b610a2c565b61013061031f366004611043565b60086020526000908152604090205481565b61015661033f3660046110c4565b610b39565b60015461024d906001600160a01b031681565b336000908152600560205260409020548110610386576040516325f2954760e01b815260040160405180910390fd5b3360009081526005602052604081208054839081106103a7576103a7611119565b9060005260206000209060090201905060004290506201518063ffffffff1682600201546103d59190611145565b60018301546103ea919063ffffffff16611162565b81106103fe576103f983610b77565b505050565b6103f983610dea565b8160000361042857604051630834b9b960e21b815260040160405180910390fd5b80601e1480610437575080603c145b80610442575080605a145b8061044d57508060b4145b80610459575080610168145b806104655750806102d0145b6104af5760405162461bcd60e51b8152602060048201526016602482015275125b9d985b1a59081cdd185ada5b99c81c195c9a5bd960521b60448201526064015b60405180910390fd5b6000818152600660205260409020548211156105195760405162461bcd60e51b8152602060048201526024808201527f45786365656473207374616b696e67206c696d697420666f72207468652070656044820152631c9a5bd960e21b60648201526084016104a6565b3360009081526009602052604090205460ff16156105795760405162461bcd60e51b815260206004820181905260248201527f596f7520616c7265616479206861766520616e20616374697665207374616b6560448201526064016104a6565b336000908152600960205260408120805460ff19166001179055600280548492906105a5908490611162565b90915550506000818152600760205260408120546105c590849084610f8c565b905060006105d66201518084611145565b6105e09042611162565b905060056000336001600160a01b03166001600160a01b031681526020019081526020016000206040518061012001604052808681526020014263ffffffff16815260200185815260200160076000878152602001908152602001600020548152602001600015158152602001428152602001838152602001848152602001600081525090806001815401808255809150506001900390600052602060002090600902016000909190919091506000820151816000015560208201518160010160006101000a81548163ffffffff021916908363ffffffff160217905550604082015181600201556060820151816003015560808201518160040160006101000a81548160ff02191690831515021790555060a0820151816005015560c0820151816006015560e0820151816007015561010082015181600801555050336001600160a01b03167f0fc5b1bac0416800b42a669229a346b6e5a15db3896339dbdc5fa376e1e4570a8585600760008881526020019081526020016000205460405161077e939291909283526020830191909152604082015260600190565b60405180910390a26001546040516323b872dd60e01b8152336004820152306024820152604481018690526000916001600160a01b0316906323b872dd906064015b6020604051808303816000875af11580156107df573d6000803e3d6000fd5b505050506040513d601f19601f820116820180604052508101906108039190611175565b90508061082357604051632f8293c360e11b815260040160405180910390fd5b5050505050565b6005602052816000526040600020818154811061084657600080fd5b600091825260209091206009909102018054600182015460028301546003840154600485015460058601546006870154600788015460089098015496995063ffffffff90951697509295919460ff90911693919089565b6108a5610fc6565b6108af6000610ff3565b565b3360009081526005602052604081205461090d5760405162461bcd60e51b815260206004820152601c60248201527f4e6f207374616b657320666f756e6420666f722074686520757365720000000060448201526064016104a6565b3360009081526005602052604090205461092990600190611197565b905090565b61098560405180610120016040528060008152602001600063ffffffff1681526020016000815260200160008152602001600015158152602001600081526020016000815260200160008152602001600081525090565b3360009081526005602052604090208054839081106109a6576109a6611119565b60009182526020918290206040805161012081018252600990930290910180548352600181015463ffffffff169383019390935260028301549082015260038201546060820152600482015460ff1615156080820152600582015460a0820152600682015460c0820152600782015460e082015260089091015461010082015292915050565b610a34610fc6565b81600003610a5557604051630834b9b960e21b815260040160405180910390fd5b6001600160a01b0383166000908152600560205260408120805483908110610a7f57610a7f611119565b906000526020600020906009020190506000838260000154610aa19190611197565b90506000610ab88284600301548560020154610f8c565b905084836000016000828254610ace9190611197565b925050819055508460026000828254610ae79190611197565b9091555050600783018190556040518581526001600160a01b038716907ffd38818f5291bf0bb3a2a48aadc06ba8757865d1dabd804585338aab3009dcb69060200160405180910390a2505050505050565b610b41610fc6565b6001600160a01b038116610b6b57604051631e4fbdf760e01b8152600060048201526024016104a6565b610b7481610ff3565b50565b336000908152600560205260409020548110610ba6576040516325f2954760e01b815260040160405180910390fd5b336000908152600560205260408120805483908110610bc757610bc7611119565b60009182526020909120600990910201600481015490915060ff1615610c005760405163a1f2ff9b60e01b815260040160405180910390fd5b60028101544290610c15906201518090611145565b6001830154610c2a919063ffffffff16611162565b811015610c4a57604051634707771960e11b815260040160405180910390fd5b8160070154826008015410610c72576040516350a5ffe560e11b815260040160405180910390fd5b600082600801548360070154610c889190611197565b83549091506000610c998383611162565b905082856008016000828254610caf9190611162565b925050819055508260036000828254610cc89190611162565b925050819055508160026000828254610ce19190611197565b909155505033600081815260096020526040808220805460ff19908116909155918855600488018054909216600117909155517ffc30cddea38e2bf4d6ea7d3f9ed3b6ad7f176419f4963bd81318067a4aee73fe90610d439084815260200190565b60405180910390a260015460405163a9059cbb60e01b8152336004820152602481018390526000916001600160a01b03169063a9059cbb906044016020604051808303816000875af1158015610d9d573d6000803e3d6000fd5b505050506040513d601f19601f82011682018060405250810190610dc19190611175565b905080610de157604051632f8293c360e11b815260040160405180910390fd5b50505050505050565b336000908152600560205260409020548110610e19576040516325f2954760e01b815260040160405180910390fd5b336000908152600560205260408120805483908110610e3a57610e3a611119565b60009182526020909120600990910201600481015490915060ff1615610e735760405163a1f2ff9b60e01b815260040160405180910390fd5b60058101544290610e879062278d00611162565b811015610ea757604051634707771960e11b815260040160405180910390fd5b6000610ebd83600001548460030154601e610f8c565b90508260070154836008015410610ee7576040516350a5ffe560e11b815260040160405180910390fd5b80836008016000828254610efb9190611162565b925050819055508060036000828254610f149190611162565b909155505042600584015560405181815233907ffc30cddea38e2bf4d6ea7d3f9ed3b6ad7f176419f4963bd81318067a4aee73fe9060200160405180910390a260015460405163a9059cbb60e01b8152336004820152602481018390526000916001600160a01b03169063a9059cbb906044016107c0565b6000610f9b61016860646111aa565b61ffff1683610faa8487611145565b610fb49190611145565b610fbe91906111d0565b949350505050565b6000546001600160a01b031633146108af5760405163118cdaa760e01b81523360048201526024016104a6565b600080546001600160a01b038381166001600160a01b0319831681178455604051919092169283917f8be0079c531659141344cd1fd0a4f28419497f9722a3daafe3b4186f6b6457e09190a35050565b60006020828403121561105557600080fd5b5035919050565b6000806040838503121561106f57600080fd5b50508035926020909101359150565b80356001600160a01b038116811461109557600080fd5b919050565b600080604083850312156110ad57600080fd5b6110b68361107e565b946020939093013593505050565b6000602082840312156110d657600080fd5b6110df8261107e565b9392505050565b6000806000606084860312156110fb57600080fd5b6111048461107e565b95602085013595506040909401359392505050565b634e487b7160e01b600052603260045260246000fd5b634e487b7160e01b600052601160045260246000fd5b808202811582820484141761115c5761115c61112f565b92915050565b8082018082111561115c5761115c61112f565b60006020828403121561118757600080fd5b815180151581146110df57600080fd5b8181038181111561115c5761115c61112f565b61ffff8181168382160280821691908281146111c8576111c861112f565b505092915050565b6000826111ed57634e487b7160e01b600052601260045260246000fd5b50049056fea2646970667358221220cea41dede7512165002fe37f6e8172dae739c6445b6e2302d3aeabb930145e9664736f6c63430008140033","linkReferences":{}},"methodIdentifiers":{"burnTokens(address,uint256,uint256)":"e0aeb7c1","claimRewards(uint256)":"0962ef79","earlyWithdrawalPenalties(uint256)":"e4188bb0","getRecentStakeIndex()":"bbfd4e0c","getStake(uint256)":"ce325bf8","getStakeCount()":"2e4ab48a","hasActiveStake(address)":"69486d29","owner()":"8da5cb5b","renounceOwnership()":"715018a6","stakeTokens(uint256,uint256)":"3b7b6188","stakes(address,uint256)":"584b62a1","stakingLimits(uint256)":"054d8310","stakingaprs(uint256)":"370fc939","token()":"fc0c546a","totalRewardDistributed()":"30188ee8","totalStakedToken()":"cb6d8ee6","transferOwnership(address)":"f2fde38b"},"id":41}