{
  "abi": [
    {
      "inputs": [
        {
          "internalType": "contract IERC20",
          "name": "_token",
          "type": "address"
        },
        {
          "internalType": "uint128",
          "name": "_annualYieldRate",
          "type": "uint128"
        }
      ],
      "stateMutability": "nonpayable",
      "type": "constructor"
    },
    {
      "inputs": [
        {
          "internalType": "address",
          "name": "owner",
          "type": "address"
        }
      ],
      "name": "OwnableInvalidOwner",
      "type": "error"
    },
    {
      "inputs": [
        {
          "internalType": "address",
          "name": "account",
          "type": "address"
        }
      ],
      "name": "OwnableUnauthorizedAccount",
      "type": "error"
    },
    {
      "inputs": [],
      "name": "Staking_FailedTransaction",
      "type": "error"
    },
    {
      "anonymous": false,
      "inputs": [
        {
          "indexed": true,
          "internalType": "address",
          "name": "user",
          "type": "address"
        },
        {
          "indexed": false,
          "internalType": "uint256",
          "name": "amount",
          "type": "uint256"
        },
        {
          "indexed": false,
          "internalType": "uint256",
          "name": "penalty",
          "type": "uint256"
        }
      ],
      "name": "EarlyWithdrawal",
      "type": "event"
    },
    {
      "anonymous": false,
      "inputs": [
        {
          "indexed": true,
          "internalType": "address",
          "name": "previousOwner",
          "type": "address"
        },
        {
          "indexed": true,
          "internalType": "address",
          "name": "newOwner",
          "type": "address"
        }
      ],
      "name": "OwnershipTransferred",
      "type": "event"
    },
    {
      "anonymous": false,
      "inputs": [
        {
          "indexed": true,
          "internalType": "address",
          "name": "user",
          "type": "address"
        },
        {
          "indexed": false,
          "internalType": "uint256",
          "name": "amount",
          "type": "uint256"
        }
      ],
      "name": "RewardsClaimed",
      "type": "event"
    },
    {
      "anonymous": false,
      "inputs": [
        {
          "indexed": true,
          "internalType": "address",
          "name": "user",
          "type": "address"
        },
        {
          "indexed": false,
          "internalType": "uint256",
          "name": "amount",
          "type": "uint256"
        }
      ],
      "name": "StakeWithdrawn",
      "type": "event"
    },
    {
      "anonymous": false,
      "inputs": [
        {
          "indexed": true,
          "internalType": "address",
          "name": "user",
          "type": "address"
        },
        {
          "indexed": false,
          "internalType": "uint256",
          "name": "amount",
          "type": "uint256"
        }
      ],
      "name": "TokensBurned",
      "type": "event"
    },
    {
      "anonymous": false,
      "inputs": [
        {
          "indexed": true,
          "internalType": "address",
          "name": "user",
          "type": "address"
        },
        {
          "indexed": false,
          "internalType": "uint256",
          "name": "amount",
          "type": "uint256"
        },
        {
          "indexed": false,
          "internalType": "uint256",
          "name": "period",
          "type": "uint256"
        },
        {
          "indexed": false,
          "internalType": "uint256",
          "name": "annualYieldRate",
          "type": "uint256"
        }
      ],
      "name": "TokensStaked",
      "type": "event"
    },
    {
      "inputs": [],
      "name": "annualYieldRate",
      "outputs": [
        {
          "internalType": "uint128",
          "name": "",
          "type": "uint128"
        }
      ],
      "stateMutability": "view",
      "type": "function"
    },
    {
      "inputs": [
        {
          "internalType": "address",
          "name": "_user",
          "type": "address"
        },
        {
          "internalType": "uint256",
          "name": "_amount",
          "type": "uint256"
        },
        {
          "internalType": "uint256",
          "name": "stakeIndex",
          "type": "uint256"
        }
      ],
      "name": "burnTokens",
      "outputs": [],
      "stateMutability": "nonpayable",
      "type": "function"
    },
    {
      "inputs": [
        {
          "internalType": "uint256",
          "name": "stakeIndex",
          "type": "uint256"
        }
      ],
      "name": "claimRewards",
      "outputs": [],
      "stateMutability": "nonpayable",
      "type": "function"
    },
    {
      "inputs": [
        {
          "internalType": "uint256",
          "name": "",
          "type": "uint256"
        }
      ],
      "name": "earlyWithdrawalPenalties",
      "outputs": [
        {
          "internalType": "uint256",
          "name": "",
          "type": "uint256"
        }
      ],
      "stateMutability": "view",
      "type": "function"
    },
    {
      "inputs": [],
      "name": "owner",
      "outputs": [
        {
          "internalType": "address",
          "name": "",
          "type": "address"
        }
      ],
      "stateMutability": "view",
      "type": "function"
    },
    {
      "inputs": [],
      "name": "renounceOwnership",
      "outputs": [],
      "stateMutability": "nonpayable",
      "type": "function"
    },
    {
      "inputs": [
        {
          "internalType": "uint256",
          "name": "_amount",
          "type": "uint256"
        },
        {
          "internalType": "uint256",
          "name": "_period",
          "type": "uint256"
        }
      ],
      "name": "stakeTokens",
      "outputs": [],
      "stateMutability": "nonpayable",
      "type": "function"
    },
    {
      "inputs": [
        {
          "internalType": "address",
          "name": "",
          "type": "address"
        },
        {
          "internalType": "uint256",
          "name": "",
          "type": "uint256"
        }
      ],
      "name": "stakes",
      "outputs": [
        {
          "internalType": "uint256",
          "name": "amount",
          "type": "uint256"
        },
        {
          "internalType": "uint32",
          "name": "startTimestamp",
          "type": "uint32"
        },
        {
          "internalType": "uint256",
          "name": "period",
          "type": "uint256"
        },
        {
          "internalType": "uint256",
          "name": "annualYieldRate",
          "type": "uint256"
        },
        {
          "internalType": "bool",
          "name": "withdrawn",
          "type": "bool"
        },
        {
          "internalType": "uint256",
          "name": "lastClaimTimestamp",
          "type": "uint256"
        },
        {
          "internalType": "uint256",
          "name": "lastRewardTimestamp",
          "type": "uint256"
        },
        {
          "internalType": "uint256",
          "name": "accumulatedRewards",
          "type": "uint256"
        },
        {
          "internalType": "uint256",
          "name": "currentRewards",
          "type": "uint256"
        }
      ],
      "stateMutability": "view",
      "type": "function"
    },
    {
      "inputs": [
        {
          "internalType": "uint256",
          "name": "",
          "type": "uint256"
        }
      ],
      "name": "stakingLimits",
      "outputs": [
        {
          "internalType": "uint256",
          "name": "",
          "type": "uint256"
        }
      ],
      "stateMutability": "view",
      "type": "function"
    },
    {
      "inputs": [],
      "name": "token",
      "outputs": [
        {
          "internalType": "contract IERC20",
          "name": "",
          "type": "address"
        }
      ],
      "stateMutability": "view",
      "type": "function"
    },
    {
      "inputs": [],
      "name": "totalStakedToken",
      "outputs": [
        {
          "internalType": "uint256",
          "name": "",
          "type": "uint256"
        }
      ],
      "stateMutability": "view",
      "type": "function"
    },
    {
      "inputs": [
        {
          "internalType": "address",
          "name": "newOwner",
          "type": "address"
        }
      ],
      "name": "transferOwnership",
      "outputs": [],
      "stateMutability": "nonpayable",
      "type": "function"
    },
    {
      "inputs": [
        {
          "internalType": "uint256",
          "name": "stakeIndex",
          "type": "uint256"
        }
      ],
      "name": "withdrawLockedToken",
      "outputs": [],
      "stateMutability": "nonpayable",
      "type": "function"
    },
    {
      "inputs": [
        {
          "internalType": "uint256",
          "name": "stakeIndex",
          "type": "uint256"
        }
      ],
      "name": "withdrawStake",
      "outputs": [],
      "stateMutability": "nonpayable",
      "type": "function"
    }
  ],
  "bytecode": {
    "object": "0x608060405234801561001057600080fd5b506040516114cc3803806114cc83398101604081905261002f91610239565b338061005557604051631e4fbdf760e01b81526000600482015260240160405180910390fd5b61005e816101e9565b50600180546001600160a01b0319166001600160a01b039390931692909217909155600280546001600160801b0319166001600160801b0390921691909117905569021e19e0c9bab24000007faadf04b4a1bf84e121ab68e5c1cffab5aeb9be1a024ff9944a2a0bc1674866095569010f0cf064dd592000007fec79235ffe9302935718f9bddc23f2c5c6c950ae49f49d137c786213c36180278190557f5464d34515fb195718451914a9b5e2c4ac04dce5fd392ea5e3f190355ea2fb7e55686c6b935b8bbd4000007fdf327ea759f05059d2fce626670e5573fc2d178377adc5719a799a3572f1e08a556006602052600a7f1727c0104c2870c3003671480695f7dab262614528b49265008e76fd3d48c5fe5560147ffb78eb295a86b096b5f095822bd250a277112be4103ea4a7608d96eca726b2c155601e7ff00a5d7dc5764c56ccd4375c9467b4afc0f9d6b53d77dfb27894bf31e07d5d8c556102d060005260327fd14912d8608d936f2919500df1975ac4b4185902611dae9908c3e5ed8b9f346d5561028b565b600080546001600160a01b038381166001600160a01b0319831681178455604051919092169283917f8be0079c531659141344cd1fd0a4f28419497f9722a3daafe3b4186f6b6457e09190a35050565b6000806040838503121561024c57600080fd5b82516001600160a01b038116811461026357600080fd5b60208401519092506001600160801b038116811461028057600080fd5b809150509250929050565b6112328061029a6000396000f3fe608060405234801561001057600080fd5b50600436106100ea5760003560e01c80638d01857b1161008c578063e0aeb7c111610066578063e0aeb7c11461022d578063e4188bb014610240578063f2fde38b14610260578063fc0c546a1461027357600080fd5b80638d01857b146101ec5780638da5cb5b146101ff578063cb6d8ee61461022457600080fd5b80633b7b6188116100c85780633b7b61881461014a578063584b62a11461015d5780636abe7139146101b9578063715018a6146101e457600080fd5b8063054d8310146100ef5780630962ef791461012257806325d5971f14610137575b600080fd5b61010f6100fd366004610fcf565b60056020526000908152604090205481565b6040519081526020015b60405180910390f35b610135610130366004610fcf565b610286565b005b610135610145366004610fcf565b610490565b610135610158366004610fe8565b610723565b61017061016b366004611026565b610ade565b60408051998a5263ffffffff90981660208a0152968801959095526060870193909352901515608086015260a085015260c084015260e083015261010082015261012001610119565b6002546101cc906001600160801b031681565b6040516001600160801b039091168152602001610119565b610135610b51565b6101356101fa366004610fcf565b610b65565b6000546001600160a01b03165b6040516001600160a01b039091168152602001610119565b61010f60035481565b61013561023b366004611050565b610d45565b61010f61024e366004610fcf565b60066020526000908152604090205481565b61013561026e366004611083565b610ec8565b60015461020c906001600160a01b031681565b3360009081526004602052604090205481106102bd5760405162461bcd60e51b81526004016102b49061109e565b60405180910390fd5b3360009081526004602052604081208054839081106102de576102de6110cb565b60009182526020909120600990910201600481015490915060ff16156103165760405162461bcd60e51b81526004016102b4906110e1565b600061032a82600001548360020154610f06565b905080826007015411156103795760405162461bcd60e51b8152602060048201526016602482015275115e18d9595908195e1c1958dd1959081c995dd85c9960521b60448201526064016102b4565b6005820154429062278d009060009061039390839061112e565b9050808310156103e15760405162461bcd60e51b815260206004820152601960248201527852657761726473206e6f742079657420636c61696d61626c6560381b60448201526064016102b4565b6000620151808660050154856103f79190611141565b6104019190611154565b90506000610413876000015483610f06565b905080876007016000828254610429919061112e565b9250508190555080876008016000828254610444919061112e565b90915550506005870185905560405181815233907ffc30cddea38e2bf4d6ea7d3f9ed3b6ad7f176419f4963bd81318067a4aee73fe906020015b60405180910390a25050505050505050565b3360009081526004602052604090205481106104be5760405162461bcd60e51b81526004016102b49061109e565b3360009081526004602052604081208054839081106104df576104df6110cb565b60009182526020909120600990910201600481015490915060ff16156105175760405162461bcd60e51b81526004016102b4906110e1565b600061052b82600001548360020154610f06565b905060008260080154905081836007015411156105835760405162461bcd60e51b8152602060048201526016602482015275115e18d9595908195e1c1958dd1959081c995dd85c9960521b60448201526064016102b4565b806000036105cb5760405162461bcd60e51b815260206004820152601560248201527452657761726473206e6f7420617661696c61626c6560581b60448201526064016102b4565b600683015442906230c780906000906105e590839061112e565b90508083116106325760405162461bcd60e51b815260206004820152601960248201527852657761726473206e6f742079657420636c61696d61626c6560381b60448201526064016102b4565b60068601839055600060088701556007860154851161065b5760048601805460ff191660011790555b60015460405163a9059cbb60e01b8152336004820152602481018690526000916001600160a01b03169063a9059cbb906044016020604051808303816000875af11580156106ad573d6000803e3d6000fd5b505050506040513d601f19601f820116820180604052508101906106d19190611176565b9050806106f157604051632f8293c360e11b815260040160405180910390fd5b60405185815233907ffc30cddea38e2bf4d6ea7d3f9ed3b6ad7f176419f4963bd81318067a4aee73fe9060200161047e565b600082116107735760405162461bcd60e51b815260206004820152601d60248201527f416d6f756e74206d7573742062652067726561746572207468616e203000000060448201526064016102b4565b80605a148061078257508060b4145b8061078e575080610168145b8061079a5750806102d0145b6107df5760405162461bcd60e51b8152602060048201526016602482015275125b9d985b1a59081cdd185ada5b99c81c195c9a5bd960521b60448201526064016102b4565b6000818152600560205260409020548211156108495760405162461bcd60e51b8152602060048201526024808201527f45786365656473207374616b696e67206c696d697420666f72207468652070656044820152631c9a5bd960e21b60648201526084016102b4565b6001546040516323b872dd60e01b8152336004820152306024820152604481018490526000916001600160a01b0316906323b872dd906064016020604051808303816000875af11580156108a1573d6000803e3d6000fd5b505050506040513d601f19601f820116820180604052508101906108c59190611176565b9050806109055760405162461bcd60e51b815260206004820152600e60248201526d14dd185ada5b99c819985a5b195960921b60448201526064016102b4565b8260036000828254610917919061112e565b9250508190555060046000336001600160a01b03166001600160a01b031681526020019081526020016000206040518061012001604052808581526020014263ffffffff168152602001848152602001600260009054906101000a90046001600160801b03166001600160801b0316815260200160001515815260200142815260200142815260200160008152602001600081525090806001815401808255809150506001900390600052602060002090600902016000909190919091506000820151816000015560208201518160010160006101000a81548163ffffffff021916908363ffffffff160217905550604082015181600201556060820151816003015560808201518160040160006101000a81548160ff02191690831515021790555060a0820151816005015560c0820151816006015560e0820151816007015561010082015181600801555050336001600160a01b03167f0fc5b1bac0416800b42a669229a346b6e5a15db3896339dbdc5fa376e1e4570a8484600260009054906101000a90046001600160801b0316604051610ad19392919092835260208301919091526001600160801b0316604082015260600190565b60405180910390a2505050565b60046020528160005260406000208181548110610afa57600080fd5b600091825260209091206009909102018054600182015460028301546003840154600485015460058601546006870154600788015460089098015496995063ffffffff90951697509295919460ff90911693919089565b610b59610f52565b610b636000610f7f565b565b336000908152600460205260409020548110610b935760405162461bcd60e51b81526004016102b49061109e565b336000908152600460205260408120805483908110610bb457610bb46110cb565b60009182526020909120600990910201600481015490915060ff1615610bec5760405162461bcd60e51b81526004016102b4906110e1565b610bfc6201518062093a8061119f565b6002820154600183015463ffffffff92831692610c1a92911661112e565b610c24919061112e565b4211610c725760405162461bcd60e51b815260206004820152601c60248201527f5374616b696e6720706572696f64206e6f7420636f6d706c657465640000000060448201526064016102b4565b805460015460405163a9059cbb60e01b8152336004820152602481018390526000916001600160a01b03169063a9059cbb906044016020604051808303816000875af1158015610cc6573d6000803e3d6000fd5b505050506040513d601f19601f82011682018060405250810190610cea9190611176565b905080610d0a57604051632f8293c360e11b815260040160405180910390fd5b60405182815233907f8108595eb6bad3acefa9da467d90cc2217686d5c5ac85460f8b7849c840645fc9060200160405180910390a250505050565b610d4d610f52565b60008211610d9d5760405162461bcd60e51b815260206004820152601d60248201527f416d6f756e74206d7573742062652067726561746572207468616e203000000060448201526064016102b4565b336000908152600460205260408120805483908110610dbe57610dbe6110cb565b9060005260206000209060090201905082816000016000828254610de29190611141565b909155505060015460405163a9059cbb60e01b815260006004820181905260248201869052916001600160a01b03169063a9059cbb906044016020604051808303816000875af1158015610e3a573d6000803e3d6000fd5b505050506040513d601f19601f82011682018060405250810190610e5e9190611176565b905080610e7e57604051632f8293c360e11b815260040160405180910390fd5b846001600160a01b03167ffd38818f5291bf0bb3a2a48aadc06ba8757865d1dabd804585338aab3009dcb685604051610eb991815260200190565b60405180910390a25050505050565b610ed0610f52565b6001600160a01b038116610efa57604051631e4fbdf760e01b8152600060048201526024016102b4565b610f0381610f7f565b50565b6000610f1561016d60646111c7565b60025461ffff91909116908390610f35906001600160801b0316866111e5565b610f3f91906111e5565b610f499190611154565b90505b92915050565b6000546001600160a01b03163314610b635760405163118cdaa760e01b81523360048201526024016102b4565b600080546001600160a01b038381166001600160a01b0319831681178455604051919092169283917f8be0079c531659141344cd1fd0a4f28419497f9722a3daafe3b4186f6b6457e09190a35050565b600060208284031215610fe157600080fd5b5035919050565b60008060408385031215610ffb57600080fd5b50508035926020909101359150565b80356001600160a01b038116811461102157600080fd5b919050565b6000806040838503121561103957600080fd5b6110428361100a565b946020939093013593505050565b60008060006060848603121561106557600080fd5b61106e8461100a565b95602085013595506040909401359392505050565b60006020828403121561109557600080fd5b610f498261100a565b602080825260139082015272092dcecc2d8d2c840e6e8c2d6ca40d2dcc8caf606b1b604082015260600190565b634e487b7160e01b600052603260045260246000fd5b60208082526017908201527f5374616b6520616c72656164792077697468647261776e000000000000000000604082015260600190565b634e487b7160e01b600052601160045260246000fd5b80820180821115610f4c57610f4c611118565b81810381811115610f4c57610f4c611118565b60008261117157634e487b7160e01b600052601260045260246000fd5b500490565b60006020828403121561118857600080fd5b8151801515811461119857600080fd5b9392505050565b63ffffffff8181168382160280821691908281146111bf576111bf611118565b505092915050565b61ffff8181168382160280821691908281146111bf576111bf611118565b8082028115828204841417610f4c57610f4c61111856fea264697066735822122049deae39e5f1ec88e943c51a834690a26366c4ece37099ba2d8727c29d0725ba64736f6c63430008140033",
    "linkReferences": {}
  },
  "methodIdentifiers": {
    "annualYieldRate()": "6abe7139",
    "burnTokens(address,uint256,uint256)": "e0aeb7c1",
    "claimRewards(uint256)": "0962ef79",
    "earlyWithdrawalPenalties(uint256)": "e4188bb0",
    "owner()": "8da5cb5b",
    "renounceOwnership()": "715018a6",
    "stakeTokens(uint256,uint256)": "3b7b6188",
    "stakes(address,uint256)": "584b62a1",
    "stakingLimits(uint256)": "054d8310",
    "token()": "fc0c546a",
    "totalStakedToken()": "cb6d8ee6",
    "transferOwnership(address)": "f2fde38b",
    "withdrawLockedToken(uint256)": "8d01857b",
    "withdrawStake(uint256)": "25d5971f"
  },
  "id": 15
}