{
  "abi": [
    {
      "inputs": [
        {
          "internalType": "contract IERC20",
          "name": "_token",
          "type": "address"
        },
        {
          "internalType": "address",
          "name": "initialOwner",
          "type": "address"
        },
        {
          "internalType": "address",
          "name": "_priceFeedAddress",
          "type": "address"
        },
        {
          "internalType": "address",
          "name": "_usdc",
          "type": "address"
        },
        {
          "internalType": "address",
          "name": "_usdt",
          "type": "address"
        }
      ],
      "stateMutability": "nonpayable",
      "type": "constructor"
    },
    {
      "inputs": [
        {
          "internalType": "address",
          "name": "owner",
          "type": "address"
        }
      ],
      "name": "OwnableInvalidOwner",
      "type": "error"
    },
    {
      "inputs": [
        {
          "internalType": "address",
          "name": "account",
          "type": "address"
        }
      ],
      "name": "OwnableUnauthorizedAccount",
      "type": "error"
    },
    {
      "inputs": [],
      "name": "SeaseaToken_FailedTransaction",
      "type": "error"
    },
    {
      "inputs": [],
      "name": "SeaseaToken_InsufficientFund",
      "type": "error"
    },
    {
      "inputs": [],
      "name": "SeeSeaToken_InvalidPrice",
      "type": "error"
    },
    {
      "inputs": [],
      "name": "SeeSeaToken_PriceBelowMinPrice",
      "type": "error"
    },
    {
      "inputs": [],
      "name": "SeeSeaToken_PurchaseHasEnded",
      "type": "error"
    },
    {
      "inputs": [],
      "name": "SeeSeaToken__StalePrice",
      "type": "error"
    },
    {
      "inputs": [],
      "name": "SeeseaToken_NotEnoughToken",
      "type": "error"
    },
    {
      "inputs": [],
      "name": "SeeseaToken_TokenNotSupported",
      "type": "error"
    },
    {
      "anonymous": false,
      "inputs": [
        {
          "indexed": true,
          "internalType": "address",
          "name": "previousOwner",
          "type": "address"
        },
        {
          "indexed": true,
          "internalType": "address",
          "name": "newOwner",
          "type": "address"
        }
      ],
      "name": "OwnershipTransferred",
      "type": "event"
    },
    {
      "anonymous": false,
      "inputs": [
        {
          "indexed": true,
          "internalType": "address",
          "name": "user",
          "type": "address"
        },
        {
          "indexed": false,
          "internalType": "uint256",
          "name": "amount",
          "type": "uint256"
        }
      ],
      "name": "PurchaseToken",
      "type": "event"
    },
    {
      "inputs": [],
      "name": "SEE_SEA_AI_PRECISION",
      "outputs": [
        {
          "internalType": "uint256",
          "name": "",
          "type": "uint256"
        }
      ],
      "stateMutability": "view",
      "type": "function"
    },
    {
      "inputs": [],
      "name": "USDT_PRICE",
      "outputs": [
        {
          "internalType": "uint256",
          "name": "",
          "type": "uint256"
        }
      ],
      "stateMutability": "view",
      "type": "function"
    },
    {
      "inputs": [],
      "name": "buyWithBNB",
      "outputs": [],
      "stateMutability": "payable",
      "type": "function"
    },
    {
      "inputs": [
        {
          "internalType": "address",
          "name": "token",
          "type": "address"
        },
        {
          "internalType": "uint256",
          "name": "amount",
          "type": "uint256"
        }
      ],
      "name": "buyWithOtherTokens",
      "outputs": [],
      "stateMutability": "nonpayable",
      "type": "function"
    },
    {
      "inputs": [],
      "name": "getBNBUSDTPrice",
      "outputs": [
        {
          "internalType": "uint256",
          "name": "",
          "type": "uint256"
        }
      ],
      "stateMutability": "view",
      "type": "function"
    },
    {
      "inputs": [],
      "name": "getMinBNBForPurchase",
      "outputs": [
        {
          "internalType": "uint256",
          "name": "",
          "type": "uint256"
        }
      ],
      "stateMutability": "view",
      "type": "function"
    },
    {
      "inputs": [],
      "name": "owner",
      "outputs": [
        {
          "internalType": "address",
          "name": "",
          "type": "address"
        }
      ],
      "stateMutability": "view",
      "type": "function"
    },
    {
      "inputs": [],
      "name": "renounceOwnership",
      "outputs": [],
      "stateMutability": "nonpayable",
      "type": "function"
    },
    {
      "inputs": [],
      "name": "seeSeaToken",
      "outputs": [
        {
          "internalType": "contract IERC20",
          "name": "",
          "type": "address"
        }
      ],
      "stateMutability": "view",
      "type": "function"
    },
    {
      "inputs": [
        {
          "internalType": "address",
          "name": "",
          "type": "address"
        }
      ],
      "name": "tokens",
      "outputs": [
        {
          "internalType": "contract IERC20",
          "name": "",
          "type": "address"
        }
      ],
      "stateMutability": "view",
      "type": "function"
    },
    {
      "inputs": [],
      "name": "totalPurchase",
      "outputs": [
        {
          "internalType": "uint256",
          "name": "",
          "type": "uint256"
        }
      ],
      "stateMutability": "view",
      "type": "function"
    },
    {
      "inputs": [
        {
          "internalType": "address",
          "name": "newOwner",
          "type": "address"
        }
      ],
      "name": "transferOwnership",
      "outputs": [],
      "stateMutability": "nonpayable",
      "type": "function"
    },
    {
      "inputs": [],
      "name": "withdrawBNB",
      "outputs": [],
      "stateMutability": "nonpayable",
      "type": "function"
    },
    {
      "inputs": [
        {
          "internalType": "uint256",
          "name": "amount",
          "type": "uint256"
        },
        {
          "internalType": "address",
          "name": "token",
          "type": "address"
        }
      ],
      "name": "withdrawTokens",
      "outputs": [],
      "stateMutability": "nonpayable",
      "type": "function"
    },
    {
      "stateMutability": "payable",
      "type": "receive"
    }
  ],
  "bytecode": {
    "object": "0x60a06040523480156200001157600080fd5b50604051620010a0380380620010a08339810160408190526200003491620001a9565b33806200005c57604051631e4fbdf760e01b8152600060048201526024015b60405180910390fd5b6200006781620000ce565b5062000073846200011e565b600180546001600160a01b039485166001600160a01b03199182161790915594831660805290821660008181526003602052604080822080548816909317909255919092168082529190208054909316179091555062000229565b600080546001600160a01b038381166001600160a01b0319831681178455604051919092169283917f8be0079c531659141344cd1fd0a4f28419497f9722a3daafe3b4186f6b6457e09190a35050565b6200012862000162565b6001600160a01b0381166200015457604051631e4fbdf760e01b81526000600482015260240162000053565b6200015f81620000ce565b50565b6000546001600160a01b03163314620001915760405163118cdaa760e01b815233600482015260240162000053565b565b6001600160a01b03811681146200015f57600080fd5b600080600080600060a08688031215620001c257600080fd5b8551620001cf8162000193565b6020870151909550620001e28162000193565b6040870151909450620001f58162000193565b6060870151909350620002088162000193565b60808701519092506200021b8162000193565b809150509295509295909350565b608051610e3f62000261600039600081816101b2015281816103d9015281816104c4015281816107d401526109490152610e3f6000f3fe6080604052600436106100e15760003560e01c8063801441311161007f5780639a51eefa116100595780639a51eefa1461021f578063a23947cf1461023b578063e486033914610250578063f2fde38b1461028657600080fd5b806380144131146101a05780638da5cb5b146101ec578063902dfe001461020a57600080fd5b80635a62012d116100bb5780635a62012d1461012c57806362b984cb1461014c578063715018a6146101755780637b2581c21461018a57600080fd5b80631d111d13146100ed57806320f1fc6114610104578063398d92bb1461010c57600080fd5b366100e857005b600080fd5b3480156100f957600080fd5b506101026102a6565b005b610102610325565b34801561011857600080fd5b50610102610127366004610c71565b6105cd565b34801561013857600080fd5b50610102610147366004610c9d565b61072f565b34801561015857600080fd5b5061016261c35081565b6040519081526020015b60405180910390f35b34801561018157600080fd5b50610102610a5c565b34801561019657600080fd5b5061016260025481565b3480156101ac57600080fd5b506101d47f000000000000000000000000000000000000000000000000000000000000000081565b6040516001600160a01b03909116815260200161016c565b3480156101f857600080fd5b506000546001600160a01b03166101d4565b34801561021657600080fd5b50610162610a70565b34801561022b57600080fd5b50610162670de0b6b3a764000081565b34801561024757600080fd5b50610162610b4f565b34801561025c57600080fd5b506101d461026b366004610cc7565b6003602052600090815260409020546001600160a01b031681565b34801561029257600080fd5b506101026102a1366004610cc7565b610b98565b6102ae610bd8565b600080546040516001600160a01b039091169047908381818185875af1925050503d80600081146102fb576040519150601f19603f3d011682016040523d82523d6000602084013e610300565b606091505b5050905080610322576040516304a206ad60e01b815260040160405180910390fd5b50565b6000670de0b6b3a7640000610338610a70565b6103429034610cff565b61034c9190610d1c565b905060006305f5e10061036283620f4240610cff565b61036c9190610d1c565b905061c35081101561039157604051632fbf396f60e21b815260040160405180910390fd5b600061c3506103a8670de0b6b3a764000084610cff565b6103b29190610d1c565b90506002548111156103d75760405163bb208db760e01b815260040160405180910390fd5b7f00000000000000000000000000000000000000000000000000000000000000006001600160a01b03166370a082316104186000546001600160a01b031690565b6040516001600160e01b031960e084901b1681526001600160a01b039091166004820152602401602060405180830381865afa15801561045c573d6000803e3d6000fd5b505050506040513d601f19601f820116820180604052508101906104809190610d3e565b8111156104a05760405163bc6581f960e01b815260040160405180910390fd5b80600260008282546104b29190610d57565b90915550600090506001600160a01b037f0000000000000000000000000000000000000000000000000000000000000000166323b872dd6104fb6000546001600160a01b031690565b6040516001600160e01b031960e084901b1681526001600160a01b039091166004820152336024820152604481018590526064016020604051808303816000875af115801561054e573d6000803e3d6000fd5b505050506040513d601f19601f820116820180604052508101906105729190610d6a565b905080610592576040516304a206ad60e01b815260040160405180910390fd5b60405182815233907fda1dce1c1c09e2aac3b3102b3c2c05cd59916e58e0465257bb731da30aee82809060200160405180910390a250505050565b6105d5610bd8565b6001600160a01b0380821660009081526003602052604090205482911661060f576040516373b36eaf60e01b815260040160405180910390fd5b6040516370a0823160e01b81523060048201526001600160a01b038316906370a0823190602401602060405180830381865afa158015610653573d6000803e3d6000fd5b505050506040513d601f19601f820116820180604052508101906106779190610d3e565b8311156106975760405163e02c4f5960e01b815260040160405180910390fd5b816001600160a01b031663a9059cbb6106b86000546001600160a01b031690565b6040516001600160e01b031960e084901b1681526001600160a01b039091166004820152602481018690526044016020604051808303816000875af1158015610705573d6000803e3d6000fd5b505050506040513d601f19601f820116820180604052508101906107299190610d6a565b50505050565b6001600160a01b03808316600090815260036020526040902054839116610769576040516373b36eaf60e01b815260040160405180910390fd5b61c35082101561078c57604051632fbf396f60e21b815260040160405180910390fd5b600061c3506107a3670de0b6b3a764000085610cff565b6107ad9190610d1c565b90506002548111156107d25760405163bb208db760e01b815260040160405180910390fd5b7f00000000000000000000000000000000000000000000000000000000000000006001600160a01b03166370a082316108136000546001600160a01b031690565b6040516001600160e01b031960e084901b1681526001600160a01b039091166004820152602401602060405180830381865afa158015610857573d6000803e3d6000fd5b505050506040513d601f19601f8201168201806040525081019061087b9190610d3e565b81111561089b5760405163bc6581f960e01b815260040160405180910390fd5b6001600160a01b038481166000908152600360205260408082205490516323b872dd60e01b815233600482015230602482015260448101879052919216906323b872dd906064016020604051808303816000875af1158015610901573d6000803e3d6000fd5b505050506040513d601f19601f820116820180604052508101906109259190610d6a565b905080610945576040516304a206ad60e01b815260040160405180910390fd5b60007f00000000000000000000000000000000000000000000000000000000000000006001600160a01b03166323b872dd6109886000546001600160a01b031690565b6040516001600160e01b031960e084901b1681526001600160a01b039091166004820152336024820152604481018890526064016020604051808303816000875af11580156109db573d6000803e3d6000fd5b505050506040513d601f19601f820116820180604052508101906109ff9190610d6a565b905080610a1f576040516304a206ad60e01b815260040160405180910390fd5b60405183815233907fda1dce1c1c09e2aac3b3102b3c2c05cd59916e58e0465257bb731da30aee82809060200160405180910390a2505050505050565b610a64610bd8565b610a6e6000610c05565b565b6000806000600160009054906101000a90046001600160a01b03166001600160a01b031663feaf968c6040518163ffffffff1660e01b815260040160a060405180830381865afa158015610ac8573d6000803e3d6000fd5b505050506040513d601f19601f82011682018060405250810190610aec9190610da6565b5093505092505060008142610b019190610df6565b905060008313610b24576040516311b177b960e31b815260040160405180910390fd5b610e10811115610b47576040516376b1e9f160e01b815260040160405180910390fd5b509092915050565b600080610b5a610a70565b90506000610b6f61c35064e8d4a51000610cff565b9050600082610b8683670de0b6b3a7640000610cff565b610b909190610d1c565b949350505050565b610ba0610bd8565b6001600160a01b038116610bcf57604051631e4fbdf760e01b8152600060048201526024015b60405180910390fd5b61032281610c05565b6000546001600160a01b03163314610a6e5760405163118cdaa760e01b8152336004820152602401610bc6565b600080546001600160a01b038381166001600160a01b0319831681178455604051919092169283917f8be0079c531659141344cd1fd0a4f28419497f9722a3daafe3b4186f6b6457e09190a35050565b80356001600160a01b0381168114610c6c57600080fd5b919050565b60008060408385031215610c8457600080fd5b82359150610c9460208401610c55565b90509250929050565b60008060408385031215610cb057600080fd5b610cb983610c55565b946020939093013593505050565b600060208284031215610cd957600080fd5b610ce282610c55565b9392505050565b634e487b7160e01b600052601160045260246000fd5b8082028115828204841417610d1657610d16610ce9565b92915050565b600082610d3957634e487b7160e01b600052601260045260246000fd5b500490565b600060208284031215610d5057600080fd5b5051919050565b80820180821115610d1657610d16610ce9565b600060208284031215610d7c57600080fd5b81518015158114610ce257600080fd5b805169ffffffffffffffffffff81168114610c6c57600080fd5b600080600080600060a08688031215610dbe57600080fd5b610dc786610d8c565b9450602086015193506040860151925060608601519150610dea60808701610d8c565b90509295509295909350565b81810381811115610d1657610d16610ce956fea26469706673582212208c224571d9181903bdcdec56faf33e95df1e8370c0a22fb766e0d072700de0f464736f6c63430008140033",
    "linkReferences": {}
  },
  "methodIdentifiers": {
    "SEE_SEA_AI_PRECISION()": "9a51eefa",
    "USDT_PRICE()": "62b984cb",
    "buyWithBNB()": "20f1fc61",
    "buyWithOtherTokens(address,uint256)": "5a62012d",
    "getBNBUSDTPrice()": "902dfe00",
    "getMinBNBForPurchase()": "a23947cf",
    "owner()": "8da5cb5b",
    "renounceOwnership()": "715018a6",
    "seeSeaToken()": "80144131",
    "tokens(address)": "e4860339",
    "totalPurchase()": "7b2581c2",
    "transferOwnership(address)": "f2fde38b",
    "withdrawBNB()": "1d111d13",
    "withdrawTokens(uint256,address)": "398d92bb"
  },
  "id": 13
}